:0200000400FFFB
:03000000020200F9
:04000B008AFF02CA9C
:200200007400F5A27450F59874CCF5D774FFF5D67415F58E7585007470F5817400F56BE51F
:2002200081F564E585F565E5BEF566E5D1F5677401F58974FFF58C74FEF58A438810748267
:20024000F5A87E30007E4000E56B7006A5DBF9A5DCF6E581F568E585F569E5BEF56A74429C
:20026000711AE56451FFE56551FFE56651FFE56751FF7449711AE56051FFE56151FFE562CF
:2002800051FFE56351FF7452711AE56851FFE56951FFE56A51FF7441711AE561A5FFE560DC
:2002A000C39408A5FEA5EF9400A5FF51E27443711AE562A5FFE560C39408A5FEA5EF9400A1
:2002C000A5FF51E27445711A80FEE581F560E585F561E5BEF562E5D1F5635388EF7401F5CE
:2002E0006B327A61827A71837584007E50107EEBB051FF0582E58270020583A5DDF022A535
:20030000FAC47109A5EA710922540FC3940A5006240A2430800424418000F5997E00007EEB
:120320001000E59854027006A5D8F7A5D9F45398FD2282
:00000001FF
